:100000000428FF3FFF3FFF3F031383168601FF30A5
:10001000831286000630CC00FF30CB00FF30CA00D0
:10002000CC0B13281A28CB0B16281928CA0B162814
:10003000132810281A30CB00FF30CA00CB0B212820
:100040002428CA0B21281E284230CA00CA0B2628A1
:10005000000086010630CC00FF30CB00FF30CA0024
:10006000CC0B33283A28CB0B36283928CA0B362834
:10007000332830281A30CB00FF30CA00CB0B412880
:100080004428CA0B41283E284230CA00CA0B4628E1
:10009000000007284A28FF3FFF3FFF3FFF3FFF3F89
:10420000C000A800000064000000000000000000E2
:10421000000000000000000053004E005400500059
:1042200020005200450041004400590000000000F9
:10423000000000000000000000000000000000007E
:10424000000000000000000000000000000000006E
:10425000000000000000000000000000000000005E
:104260000000000000000000B200010010000E007D
:1042700000000000C30071002500000000000000E5
:10428000000000000000000000000000000000002E
:10429000000000000000000000000000000000001E
:1042A000000000000000000000000000000000000E
:1042B00000000000000000000000000000000000FE
:1042C00000000000000000000000000000000000EE
:1042D00000000000000000000000000000000000DE
:1042E00000000000000000000000000000000000CE
:1042F00000000000000000000000000000000000BE
:1043000000000000000000000000000000000000AD
:10431000000000000000000000000000000000009D
:10432000000000000000000000000000000000008D
:10433000000000000000000000000000000000007D
:10434000000000000000000000000000000000006D
:10435000000000000000000000000000000000005D
:10436000000000000000000000000000000000004D
:10437000000000000000000000000000000000003D
:10438000000000000000000000000000000000002D
:10439000000000000000000000000000000000001D
:1043A000000000000000000000000000000000000D
:1043B00000000000000000000000000000000000FD
:1043C00000000000000000000000000000000000ED
:1043D00000000000000000000000000000000000DD
:1043E00000000000000000000000000000000000CD
:1043F00000000000000000000000000000000000BD
:02400E00FA3F77
:00000001FF
